:020000040800F2
:1000000000000520DD0A01081D0A01081F0A010879
:10001000210A0108230A0108250A0108000000003E
:100020000000000000000000000000005130000847
:10003000270A010800000000F1300008290A010821
:100040002D0B01082D0B01082D0B01082D0B0108AC
:100050002D0B01082D0B01082D0B01082D0B01089C
:100060002D0B01082D0B01082D0B01082D0B01088C
:100070002D0B01082D0B01082D0B01082D0B01087C
:100080002D0B01082D0B01082D0B01082D0B01086C
:100090002D0B01082D0B01082D0B01082D0B01085C
:1000A0002D0B01082D0B01082D0B01082D0B01084C
:1000B0002D0B01082D0B01082D0B01082D0B01083C
:1000C0002D0B01082D0B01082D0B01082D0B01082C
:1000D0002D0B01082D0B01082D0B01082D0B01081C
:1000E0002D0B01082D0B01082D0B01082D0B01080C
:1000F0002D0B01082D0B01082D0B01082D0B0108FC
:100100002D0B01082D0B01082D0B01082D0B0108EB
:100110002D0B01082D0B01080D0A01082D0B0108FC
:100120002D0B01082D0B01082D0B01082D0B0108CB
:100130002D0B0108310A01082D0B01082D0B0108B8
:100140002D0B01082D0B01082D0B01082D0B0108AB
:100150002D0B01082D0B01082D0B01082D0B01089B
:100160002D0B01082D0B01082D0B01082D0B01088B
:100170002D0B01082D0B01082D0B010800000000BC
:100180002D0B01082D0B01082D0B01082D0B01086B
:100190002D0B01082D0B01082D0B01082D0B01085B
:1001A0002D0B01082D0B01082D0B01082D0B01084B
:1001B0002D0B01082D0B01082D0B01082D0B01083B
:0801C0002D0B01082D0B0108B5
:1001D00010B5054C237833B9044B13B10448AFF381
:1001E00000800123237010BD383100200000000082
:1001F000AC1F010808B5034B1BB103490348AFF31B
:10020000008008BD000000003C310020AC1F010848
:1002100010F8012B11F8013B012A28BF9A42F7D0B0
:10022000D01A7047034613F8012B002AFBD1181A85
:1002300001387047000000000000000000000000CE
:1002400001F0FF01102A2BDB10F0070F08D010F887
:10025000013B013A8B422DD010F0070F42B3F6D18B
:10026000F0B441EA012141EA014122F007047FF0A4
:1002700000070023F0E80256083C85EA010586EAFB
:10028000010685FA47F5A3FA87F586FA47F6A5FA37
:1002900087F68EB9EED1F0BC01F0FF0102F0070243
:1002A00032B110F8013B013A83EA010313B1F8D1EE
:1002B0000020704701387047002D06BF35460338CF
:1002C000073815F0010F07D1013015F4807F02BF08
:1002D000013015F4C03F0130F0BC0138704700BF59
:1002E00053B94AB9002908BF00281CBF4FF0FF319D
:1002F0004FF0FF3000F06EB9ADF1080C6DE904CE9F
:1003000000F006F8DDF804E0DDE9022304B07047F0
:100310002DE9F047089D04468C46002B40F0838071
:100320008A42174647D9B2FA82F242B1C2F120009E
:1003300024FA00F09140974040EA010C94404FEAC3
:100340001748230CBCFBF8F61FFA87FE08FB16C102
:1003500043EA014306FB0EF1994209D9FB1806F165
:10036000FF3080F01981994240F21681023E3B44F1
:100370005B1AA4B2B3FBF8F008FB103344EA034461
:1003800000FB0EFEA64509D93C1900F1FF3380F0B1
:100390000581A64540F2028102383C4440EA06400D
:1003A000A4EB0E0400261DB1D4400023C5E9004390
:1003B0003146BDE8F08702B9FFDEB2FA82F2002AC8
:1003C00050D1CB1B4FEA174E1FFA87F80126B3FB1B
:1003D000FEFC210C0EFB1C3341EA034108FB0CF32D
:1003E0008B4207D979180CF1FF3002D28B4200F210
:1003F000E9808446C91AA3B2B1FBFEF00EFB1011CE
:1004000043EA014408FB00F8A04507D93C1900F174
:10041000FF3302D2A04500F2D9801846A4EB0804AD
:1004200040EA0C40BFE78B4209D9002D00F0B180B3
:100430000026C5E9000130463146BDE8F087B3FA31
:1004400083F6002E4AD18B4202D3824200F2B8805A
:10045000841A61EB030101208C46002DA8D0C5E968
:10046000004CA5E7C2F1200320FA03F6974001FAF9
:1004700002F04FEA174ED9403043030CB1FBFEF6B1
:100480001FFA87F80EFB161143EA014306FB08F139
:10049000994204FA02F409D9FB1806F1FF3C80F0F6
:1004A0008D80994240F28A80023E3B445B1A81B2C1
:1004B000B3FBFEF00EFB103341EA034100FB08F3EF
:1004C0008B4207D9791800F1FF3C73D28B4271D966
:1004D00002383944CB1A40EA064678E7C6F1200CC8
:1004E00003FA06F422FA0CF31C4320FA0CF701FA83
:1004F00006F34FEA144E21FA0CF11F433B0CB1FBFB
:10050000FEF91FFA84F80EFB191143EA014109FBB9
:1005100008FA8A4502FA06F200FA06F308D96118C9
:1005200009F1FF3048D28A4546D9A9F10209214490
:10053000A1EB0A01BFB2B1FBFEF00EFB101147EABE
:10054000014700FB08F8B84507D9E71900F1FF316A
:100550002ED2B8452CD90238274440EA0940A7EBEF
:100560000807A0FB02894F45C64649461AD317D053
:100570005DB1B3EB0E0267EB010707FA0CFCF2402A
:100580004CEA0202F740C5E9002700263146BDE8E3
:10059000F0872E4628460BE70646E9E61846FDE6B4
:1005A0004345E5D2B8EB020E69EB04010138DFE701
:1005B0000846D2E760468DE78146B9E7664675E7AB
:1005C00030464AE7ACF1020C394413E702383C44A8
:1005D00024E700BF704700BF0649CB6823F4E063FF
:1005E0001B041B0C000200F4E0600343024A1A43A0
:1005F000CA60704700ED00E00000FA0530B4154B0A
:10060000DB68C3F30223C3F10704042C28BF0424CE
:100610001D1D062D14D9033B4FF0FF3505FA04F4D8
:1006200021EA0401994005FA03F322EA030319437E
:10063000002807DB0901C9B2074B195430BC7047C9
:100640000023E9E700F00F000901C9B2034B195478
:10065000F4E700BF00ED00E000E400E014ED00E08E
:10066000002807DB00F01F02400901239340024AE3
:1006700042F82030704700BF00E100E0BFF35F8F19
:10068000044A536A23F480335362034B00225A60B6
:10069000704700BF00ED00E090ED00E040F0010089
:1006A000054B5860054A536A43F480335362BFF3E5
:1006B0004F8FBFF36F8F704790ED00E000ED00E0CB
:1006C0004278134B9A600378EBB14368104AD360C9
:1006D000017BC37A1B0643EA0173817A43EAC14373
:1006E000417B43EA8143817B43EA4143C17B43EA47
:1006F0000143417A43EA0123017A43EA4103017845
:100700000B4313617047024B0022DA601A61704795
:1007100090ED00E010B40168CAB2103A0A4BA3FB96
:1007200002431B09094CE35CC3655F2A07D9084BE8
:100730000B4004338365806D5DF8044B7047044BB8
:100740000B408365F7E700BFABAAAAAAF41F010814
:1007500000FCFFFF836A826992B9012B0AD0022B49
:1007600002D00BB100207047C36A13F0807F28D1FC
:1007700000207047C36AB3F1C07F24D000207047C7
:10078000B2F5005F09D0022B25D9032B25D1C36A0E
:1007900013F0807F23D100207047032B03D8DFE8BC
:1007A00003F01404140A00207047C36A13F0807F1A
:1007B0000DD100207047C36AB3F1C07F09D000207B
:1007C00070470120704701207047012070470120C9
:1007D00070470120704701207047002070470120BA
:1007E0007047000070B5044602F050F9002C5BD051
:1007F0000546002384F83430022384F8353022681B
:10080000136823F00103136023681A6812F0010FC4
:100810000AD002F03BF9431B052BF5D92023636571
:10082000032084F8350070BD1A68204810406168C4
:10083000A2680A43E1680A4321690A4361690A43DD
:10084000A1690A43E1690A43216A0A430243616AD2
:1008500004291ED01A602668756925F00705636AA9
:100860001D43042B07D1A36A1D43E36A1BB1204635
:10087000FFF770FF90B975612046FFF74BFFE26DFF
:100880003F239340836000206065012384F8353066
:10089000C9E7E16A206B01430A43DBE74023636554
:1008A000012084F83500BEE70120BCE73F8010F04E
:1008B00000282DD038B5054690F83500C0B2022882
:1008C00025D02A68136823F0010313602B680024E5
:1008D0001C602B685C602B689C602B68DC602B685C
:1008E0001C612B6821225A612846FFF713FFEA6D2D
:1008F0003F2393408360EC632C646C64AC64EC64D1
:100900002C656C6585F8354085F83440204638BD47
:100910000120704770B40668746C04F04044039D75
:1009200045EA03452C4374640368DA634368B3F50E
:10093000403F03D00368D96070BC704701F07F4628
:1009400001F47F0301F47F45CAB2846894B1012C9D
:100950000ED0022C11D0032C17D0360F1B0D2D0BEF
:10096000190241EA051141EA063141EA121101E09A
:1009700021F07F4103689963DEE7DB0CAD0AD90201
:1009800041EA451141EAD201F4E7F60FDB0CED0A2A
:10099000990241EA451141EAC63141EAD201E9E74B
:1009A0007047000038B310B5044690F83930EBB109
:1009B000022384F839302268136823F440336168D5
:1009C0000B4313602268536B23F00703A1680B43AA
:1009D00053632268116C094B0B40E1680B431364AD
:1009E0000020E063012384F8393010BD80F83830EE
:1009F000FFF7D6FFDCE70120704700BF00C0FFFF14
:100A000010B582B0044690F83800012812D00120B9
:100A100084F83800022084F83900049800902046B9
:100A2000FFF778FF2268136843F00103136000208A
:100A300002B010BD0220FBE770B582B004460D463F
:100A40000023019303681B6813F0010F11D1226882
:100A5000D369526A134313F0200F47D1236812223F
:100A60009A60012384F83930002084F8380002B0FD
:100A700070BD02F00BF8064623685A6812F0020FA8
:100A8000E5D15A680192019A12F0210F14D1B5F103
:100A9000FF3FF1D001F0FAFF801BA84201D8002DE2
:100AA000EAD1E36B43F02003E363032084F83900C9
:100AB000002384F83830DAE7019A12F0200F03D0CF
:100AC000E26B42F00202E263019A12F0010F03D0DE
:100AD000E26B42F00102E26321229A60042384F86F
:100AE0003930002384F838300120C0E701F0CEFF10
:100AF000064623685A6812F0100FAFD15A68019267
:100B0000019A12F0290F14D1B5F1FF3FF1D001F095
:100B1000BDFF801BA84201D8002DEAD1E36B43F052
:100B20002003E363032084F83900002384F838307D
:100B30009DE7019A12F0080F03D0E26B42F0040225
:100B4000E263019A12F0200F03D0E26B42F002023E
:100B5000E263019A12F0010F03D0E26B42F001024E
:100B6000E26329229A60042384F83930002384F850
:100B7000383001207BE7000090F83830012B59D045
:100B800030B4012380F83830022380F8393000EB8C
:100B90000113DA698B1C1B01C35842EA0343093A6B
:100BA000012A1ED98A1C00EB0212526843EA026332
:100BB00041BB0468656A204A2A40134363620268A5
:100BC00000EB01139C699461DB69093B012B10D98F
:100BD000012380F83930002380F83830184630BCC3
:100BE00070478A1C00EB0212526802F07F421343E6
:100BF000DEE7023100EB01114B68026823F07F430E
:100C00009362E5E70468E5690B4A2A401343E36110
:100C1000026800EB01139C691461DB69093B012B3D
:100C2000D6D8023100EB01114B68026823F07F43F4
:100C30001362CDE702207047F0FFFC005079137972
:100C400043EA002307480B50D07893781B0443EA0B
:100C50000063507843EA002312781343024A8B5012
:100C6000704700BF4080024044800240016841F26A
:100C700018028B5843F400538B507047016841F2BF
:100C800018028B5843F002038B50704770B59EB02A
:100C9000044629B14FF40063C3604FF4804383607E
:100CA000E369002B68D14FF48063079321680B68D8
:100CB000374A1A40A368E06803430798034343F4A4
:100CC000007313430B6023681D68012001F0E4FEEC
:100CD00023681D60236840225A6023685D680120F4
:100CE00001F0DAFE23685D60236800259D602368BB
:100CF000DD602268936923F0BE031B041B0C43F0E4
:100D00008003936123689E69012001F0C5FE23687A
:100D10009E612368DD612368DD69012001F0BCFE6E
:100D20002368DD61216841F218054B59194A1A40C0
:100D3000194B13434B5123685E59012001F0ACFE5F
:100D400023685E51236803F58053144A1A602368B0
:100D500003F580531D68012001F09EFE236803F512
:100D600080531D60A369012B09D0626900212046D0
:100D7000FFF764FF1EB070BD0023079396E721685C
:100D800041F21C028858064B03438B50EDE700BF2D
:100D90000F8120FF233FDEF8040020028020C102E3
:100DA0004000010010B582B00446002301930268A0
:100DB000136843F00803136003681B680193012064
:100DC00001F06AFE2368019A1A6002B010BD10B5E6
:100DD00082B00446002301930268136843F00403C1
:100DE000136003681B680193012001F055FE23681E
:100DF000019A1A6002B010BD30B583B004460023DA
:100E00000193026841F21805535943F4801353517A
:100E100003685B590193012001F03EFE2368019AAB
:100E20005A5103B030BDF0B490F84540012C32D097
:100E3000012480F84540022480F84440C162002427
:100E400001E0F16001349C4218D2670101EB4416C5
:100E50004FF48015CD5140F2F45505FB0425B560E3
:100E6000C5691DB9CD5945F44005CD515D1EA5425A
:100E7000E7D9651C01EB4515F560E3E7026841F22F
:100E80001003D150012380F84430002380F845300E
:100E90001846F0BC70470220FBE7F0B490F84540DC
:100EA000012C2FD0012480F84540022480F84440D2
:100EB0008162002401E0E96001349C4215D26601A0
:100EC00001EB44154FF000478F5144F2F4566E6029
:100ED00040F2F45606FB0426AE605E1EA642EAD936
:100EE000661C01EB4616EE60E6E7026841F20C0371
:100EF000D150012380F84430002380F84530184653
:100F0000F0BC70470220FBE790F84530012B00F061
:100F10008580012380F84530022380F84430B1B148
:100F2000C36A1A68002A1ADB30B440F2F4529142C4
:100F30001DD93B4CA4FB0124A40A40F2F45202FB4D
:100F4000141202B10134012C11D0002348E0012316
:100F500080F84430002280F845201846704712235C
:100F600080F84430002380F84530012070471A682B
:100F700042F040521A60C36AC1F30C015960C26A60
:100F8000136843F000431360C36ADB68C3620368FD
:100F900041F214029A5812F0040F08D041F21402E0
:100FA00004219950026841F204030021D150012329
:100FB00080F84430002380F84530184630BC704734
:100FC000C26A40F2F4555560621E9A4217D0C56A53
:100FD0002A6842F000422A60C26AD268C2620133C3
:100FE0009C42D4D9C56A2A6822F040522A60002B5C
:100FF000E6D1C56A2A6842F080522A60E0E7C56AF5
:101000002A6842F000522A60064A02FB041202F2E9
:10101000F452C56AC2F30C026A60D8E70220704736
:101020000BB002AC0CFAFFFF90F84530012B45D015
:10103000012380F84530022380F84430002104E089
:10104000036301228263DB688362836A1A68002A71
:101050002CDB03292AD801311A6802F44072B2F558
:10106000007FEDD01A6812F4407F05D1826B013207
:101070008263DB688362E8E74363826B01328263E9
:10108000012A11D01A68C2F30D42043AC263026BFE
:1010900092680264DB688362012380F84430002395
:1010A00080F84530184670470363EBE7012380F86A
:1010B0004430002280F845201846704702207047CF
:1010C0007047704710B50446036841F214029A58FD
:1010D00012F0400F11D141F214029B5813F0010F8E
:1010E00019D1226841F214034FF48031D1502268A3
:1010F000D35813F4004F1BD110BD0FF0D9F822685C
:1011000041F214034021D150012384F844300023DC
:1011100084F84530E5E7FFF7D3FF2168012341F26A
:1011200014028B5084F84430002384F84530D8E70B
:101130002046FFF7C6FF226841F214034FF4004136
:10114000D150012384F84430002384F84530D3E79C
:10115000F8B590F84430DBB2822B33D00546164602
:10116000822380F844300068026902F01C022B8A56
:10117000DB029BB213438C0104F4F8641C4344F07B
:101180000104046101F082FC074614F0010F10D045
:1011900001F07CFCC31BB3F5803F02D22B681C69B5
:1011A000F3E7012385F84430002385F84530032018
:1011B00007E02B685B699BB23360012385F84430FC
:1011C0000020F8BD0220FCE790F84430DBB2422B4F
:1011D00032D070B50546422380F844300668306945
:1011E00000F01C002B8ADB029BB203438C0104F449
:1011F000F8641C4344F0030492B272612B681C61D2
:1012000001F044FC064614F0010F10D001F03EFC42
:10121000831BB3F5803F02D22B681C69F3E70123DF
:1012200085F84430002385F84530032003E001238E
:1012300085F84430002070BD0220704770B582B040
:1012400000230193002800F00D81044690F84430FB
:10125000002B32D0844B5A6C42F480425A645B6C4F
:1012600003F480430093009B804B5A6822F40002F1
:101270005A605A68216A0A435A60236803F580530A
:101280001A6842F001021A6001F000FC054623686A
:1012900003F58052126812F0010F13D001F0F6FB33
:1012A000401BB0F5FA7FF2D9032584F8445000239F
:1012B00084F84530284602B070BD80F845300EF005
:1012C00091FFC7E71D6925F01C0500F0DBFE684BA8
:1012D0000344684A934256D245F0080523681D61CD
:1012E0004FF4004200212046FFF76EFF054600281C
:1012F00061D140F6FF7001F0CFFB6368002B00F076
:10130000918001F0C3FB064601AA01212046FFF7A8
:101310001FFF01F0BBFB801B41F28833984252D87B
:10132000019B13F0040FEFD04FF4805200212046B0
:10133000FFF74AFF002852D101F0A8FB064601AA98
:1013400001212046FFF704FF01F0A0FB801B41F2C2
:10135000883398424BD8019B13F0200FEFD001AA9D
:101360001F212046FFF7F4FE00284CD1019B13F00B
:10137000100F50D04FF40062E26013F0040F4DD014
:101380000023A3605EE03C4B03443C4A934202D8F6
:1013900045F00C05A2E73A4B03443A4A93429DD3E9
:1013A000394B0344394A934202D845F0040595E786
:1013B00045F0100592E701212046FFF767FC012563
:1013C00084F8445076E701212046FFF75FFC0123B3
:1013D00084F84430002384F8453003256AE701216E
:1013E0002046FFF753FC012584F8445062E70121B1
:1013F0002046FFF74BFC012384F84430002384F897
:101400004530032556E701212046FFF73FFC012523
:1014100084F844504EE70022E260AEE74FF4804388
:10142000A3600FE0E268C2F3CF02A368C3F34F03E7
:101430001A4300212046FFF7C7FE58B940F6FF7057
:1014400001F02AFB00212046FFF720FC012384F84D
:1014500044302FE701212046FFF718FC012584F8CE
:10146000445027E7012525E70038024000380140B5
:1014700000D3CEFEC0E1E40040F1E9FD3F787D01FC
:1014800000796CFC005A6202001F0AFA7FF0FA022F
:1014900038B590F84530012B1AD00446012580F864
:1014A0004550022380F84430FFF77CFC2046FFF7CC
:1014B0008EFC2046FFF7A0FC2046FFF7D7FB204616
:1014C000FFF7DCFB84F84450002084F8450038BD69
:1014D0000220FCE700230F2B00F2E380F0B583B07D
:1014E00039E0092200E00022B2403A4302346D4E56
:1014F00046F824206C4A1468EA4324EA05064F683B
:1015000017F4803F01D045EA0406674C2660646802
:1015100002EA04064F6817F4003F01D045EA0406CA
:10152000614C6660A46802EA04064F6817F4801FE5
:1015300001D045EA04065C4CA660E46822404E688F
:1015400016F4001F01D045EA0402574CE260013353
:101550000F2B00F2A48001229A400C6804EA0205D5
:1015600032EA0404F3D14C68661E112C18BF012E18
:1015700001D9122C12D186685F000324BC4026EAF0
:101580000406CC68BC4034438460466826EA020600
:101590004C68C4F300129A4032434260C7685E0050
:1015A0000324B440E24327EA04078C68B4403C4378
:1015B000C4604C68122C18BF022C13D1DF08083706
:1015C00050F827E003F007044FEA840C0F2404FAD4
:1015D0000CF42EEA040E0C6904FA0CF444EA0E042E
:1015E00040F82740046814404A6802F00302B24001
:1015F000224302604A6812F0805FA8D02B4A546CE4
:1016000044F480445464526C02F480420192019A82
:101610009C08A61C234A52F8267003F00302960089
:101620000F22B24027EA0207214A90423FF45BAF03
:1016300002F58062904222D002F58062904220D072
:1016400002F5806290421ED002F5806290421CD06A
:1016500002F5806290421AD002F58062904218D062
:1016600002F58062904216D002F58062904214D05A
:1016700002F5806290423FF434AF0A2234E701223F
:1016800032E7022230E703222EE704222CE705226C
:101690002AE7062228E7072226E7082224E703B0E4
:1016A000F0BD704700380140003C01400038024066
:1016B000000002400AB181617047090481617047EE
:1016C000F0B54E680568EB68C3F30B431E44D401C4
:1016D00005EBC215D5F8883003F47043C5F888309F
:1016E0000B680568EF68C7F30B473B44013305EB14
:1016F000C21543EA0643C5F88830CE680568EB6832
:10170000C3F30A031E4405EBC215D5F88C3003F46D
:101710007043C5F88C308B680568EF68C7F30A071B
:101720003B44013305EBC21543EA0643C5F88C3050
:10173000036803EBC213D3F8945025F00705C3F8F0
:101740009450036803EBC2130D69C3F8945091F8E9
:1017500031E091F832C08F69066806EBC216D6F800
:101760009C300025C6F89C5091F8303043EA0E2397
:1017700043EA0C43066806EBC21643EA0763C6F861
:101780009C30036803EBC213D3F8986026F0FF0681
:10179000C3F89860036803EBC2134E69C3F89860FE
:1017A000036803EBC213D3F8A0702E4E3E40C3F87B
:1017B000A060CE690F6A036803EBC2133E43C3F80F
:1017C000A060036803EBC213D3F8AC60C3F8AC505D
:1017D000036803EBC2124B6AC2F8AC300B696BB101
:1017E000012B39D0022B18BF042B37D0032B37D055
:1017F000072B01D0012302E0022300E0042302684A
:101800002244D2F8B05005F0E025C2F8B0508A6A00
:1018100003FB02F54A680E68921B03FB02F30333D5
:101820000268224443EA0543C2F8B0300368234407
:10183000D3F8B4500C4A2A40C3F8B42003682344B8
:10184000CA6AC3F8B42003681C44D4F8843043F057
:101850000103C4F88430F0BD0323D0E70223CEE7B0
:101860000223CCE7F8F8FFFF00F8FFFF7047000005
:10187000002872D038B5044690F8A130002B67D00C
:10188000022384F8A1302268936923F070439361A6
:1018900021688A696368A0680343E068034320699C
:1018A000034313438B6121688A682D4B1A408A6079
:1018B000656920688268A16941EA05410A4382603E
:1018C0002168CA681A40CA60E5692068C268216A4E
:1018D00041EA05410A43C26021680A691A400A6167
:1018E000656A20680269A16A41EA05410A4302610A
:1018F00021684A6913404B61E06A21684B69226B99
:1019000042EA004213434B6194F8350094F83630B4
:101910001B042168CA6A02F07F42CA622168CA6A4F
:1019200043EA002394F8340003431343CB62226854
:10193000536B43F0060353632268936943F001033A
:1019400093610020C4F8A400012384F8A13038BDBD
:1019500080F8A030FFF78AFF92E70120704700BFB0
:1019600000F800F090F8A030012B27D02DE9F041CD
:1019700006460F4694464FF0010880F8A0800223E7
:1019800080F8A130342404FB020438340D460FCD16
:101990000FC40FCD0FC40FCD0FC42B682360624658
:1019A00039463046FFF78CFE3368C3F8248086F84A
:1019B000A180002086F8A000BDE8F08102207047D9
:1019C00090F8A1007047000010B582B01B4B1A6C54
:1019D00042F080521A641B6C03F080530193019B08
:1019E000174A136843F48033136001F04FF804463C
:1019F000134B5B6813F4803F08D101F047F8001BDC
:101A0000B0F57A7FF4D9032002B010BD0C4A1368F8
:101A100043F40033136001F039F80446084B5B6867
:101A200013F4003F07D101F031F8001BB0F57A7FC5
:101A3000F4D90320E8E70020E6E700BF00380240C1
:101A400000700040002800F0FF8170B582B00446AD
:101A5000036813F0010F29D0A74B9B6803F00C0318
:101A6000042B1AD0A44B9B6803F00C03082B0FD057
:101A70006368B3F5803F40D0002B54D19E4B1A6869
:101A800022F480321A601A6822F480221A6039E047
:101A9000994B5B6813F4800FEAD0974B1B6813F4E3
:101AA000003F03D06368002B00F0D081236813F05F
:101AB000020F74D0904B9B6813F00C0F5ED08E4BCE
:101AC0009B6803F00C03082B53D0E368002B00F055
:101AD0008980894A136843F00103136000F0D6FF40
:101AE0000546854B1B6813F0020F72D100F0CEFF44
:101AF000401B0228F5D90320ADE17F4A136843F467
:101B00008033136063682BB300F0C0FF05467A4B47
:101B10001B6813F4003FC9D100F0B8FF401B6428D4
:101B2000F5D9032097E1B3F5A02F09D0724B1A68BD
:101B300022F480321A601A6822F480221A60E1E7E7
:101B40006D4B1A6842F480221A601A6842F480329F
:101B50001A60D7E700F09AFF0546674B1B6813F43D
:101B6000003FA3D000F092FF401B6428F5D903206A
:101B700071E1614B5B6813F4800FA6D15E4B1B686B
:101B800013F0020F03D0E368012B40F061815A4A41
:101B9000136823F0F803216943EAC1031360236843
:101BA00013F0080F46D0636983B3534A536F43F071
:101BB0000103536700F06AFF05464F4B5B6F13F05C
:101BC000020F37D100F062FF401B0228F5D9032035
:101BD00041E1494A136823F0F803216943EAC1034C
:101BE0001360DCE7444A136823F00103136000F03C
:101BF0004DFF0546404B1B6813F0020FCFD000F09D
:101C000045FF401B0228F5D9032024E13A4A536FCF
:101C100023F00103536700F039FF0546364B5B6F35
:101C200013F0020F06D000F031FF401B0228F5D957
:101C3000032010E1236813F0040F7DD02E4B1B6CA2
:101C400013F0805F0BD12C4B1A6C42F080521A6457
:101C50001B6C03F080530193019B012500E00025DC
:101C6000264B1B6813F4807F0ED0A368012B1FD076
:101C7000002B35D1204B1A6F22F001021A671A6F20
:101C800022F004021A6718E01C4A136843F48073B8
:101C9000136000F0FBFE0646184B1B6813F4807FB0
:101CA000E3D100F0F3FE801B6428F5D90320D2E0D5
:101CB000114A136F43F001031367A36853B300F095
:101CC000E5FE06460C4B1B6F13F0020F33D100F0FC
:101CD000DDFE801B41F288339842F3D90320BAE03D
:101CE000052B0DD0044B1A6F22F001021A671A6FF0
:101CF00022F004021A67E0E700380240007000405A
:101D00005C4B1A6F42F004021A671A6F42F001022C
:101D10001A67D2E700F0BAFE0646564B1B6F13F067
:101D2000020F08D000F0B2FE801B41F288339842C7
:101D3000F3D903208FE0FDB9A369002B00F08A805E
:101D40004C4A926802F00C02082A58D0022B19D093
:101D5000484A136823F08073136000F097FE04462E
:101D6000444B1B6813F0007F47D000F08FFE001B30
:101D70000228F5D903206EE03E4A136C23F080530D
:101D80001364D9E73B4A136823F08073136000F0B3
:101D90007DFE0546374B1B6813F0007F06D000F030
:101DA00075FE401B0228F5D9032054E0E369226A3E
:101DB0001343626A43EA8213A26A5208013A43EA71
:101DC0000243E26A43EA026343F00053294A536044
:101DD000136843F08073136000F058FE0446254BEF
:101DE0001B6813F0007F06D100F050FE001B022894
:101DF000F5D903202FE000202DE000202BE01D4A24
:101E00005268012B29D002F48003E1698B4226D16C
:101E100002F03F03216A8B4223D1616A47F6C07307
:101E20001340B3EB811F1ED102F44031A36A5B085B
:101E3000013BB1EB034F18D102F07062E36AB2EBE1
:101E4000036F14D1002006E001207047012002E05A
:101E5000012000E0002002B070BD0120FBE701205E
:101E6000F9E70120F7E70120F5E70120F3E701207A
:101E7000F1E700BF00380240F8B5244B9B6803F03F
:101E80000C03042B3DD0082B3DD1204B5A6802F0A7
:101E90003F025B6813F4800F12D01C4B5968C1F3EA
:101EA000881100231A48A1FB0001FEF719FA174B0D
:101EB0005B68C3F3014301335B00B0FBF3F023E045
:101EC000124B5B68C3F388135C010025E41A65F1CB
:101ED0000005AE0146EA9466A701381B66EB0501D2
:101EE000CC0044EA5074C500E81844F100018B02AC
:101EF00043EA90538402204619460023FEF7F0F986
:101F0000D5E7034800E00348F8BD00BF00380240B1
:101F100040787D010024F400002800F0A08070B516
:101F20000D460446524B1B6803F00F038B420BD245
:101F30004F4A136823F00F030B431360136803F039
:101F40000F038B4240F08D80236813F0020F17D0EF
:101F500013F0040F04D0474A936843F4E0539360AE
:101F6000236813F0080F04D0424A936843F4604397
:101F70009360404A936823F0F003A1680B43936099
:101F8000236813F0010F31D06368012B20D0022B9E
:101F900025D0384A126812F0020F64D035498A6899
:101FA00022F0030213438B6000F070FD0646314BB4
:101FB0009B6803F00C036268B3EB820F16D000F04D
:101FC00065FD801B41F288339842F0D9032045E03B
:101FD000284A126812F4003FE0D101203EE0254A71
:101FE000126812F0007FD9D1012037E0204B1B6826
:101FF00003F00F03AB420AD91D4A136823F00F0305
:102000002B431360136803F00F03AB422DD12368F9
:1020100013F0040F06D0174A936823F4E053E168E5
:102020000B439360236813F0080F07D0114A93689D
:1020300023F46043216943EAC1039360FFF71CFF67
:102040000C4B9B68C3F303130B4AD35CD8400B4B78
:1020500018600B4B18680EF091FC002070BD012039
:1020600070470120FAE70120F8E70120F6E700BFFA
:10207000003C024000380240142001080C000020FF
:1020800004000020014B1868704700BF0C000020BE
:1020900008B5FFF7F7FF044B9B68C3F38223034A9D
:1020A000D35CD84008BD00BF00380240242001089E
:1020B0000F2303600B4B9A6802F0030242609A6898
:1020C00002F0F00282609A6802F4E052C2609B68FB
:1020D000DB0803F4E0530361034B1B6803F00F03B9
:1020E0000B60704700380240003C0240F0B583B0FE
:1020F0000446066816F001060DD0AF4B9A6822F42C
:1021000000029A609A68416B0A439A60436B002B05
:1021100000F02B810026256815F4002511D0A64A71
:10212000D2F88C3023F44013E16B0B43C2F88C30AF
:10213000E36BB3F5801F00F01A81002B00F01981CA
:102140000025236813F4801F0FD09B4AD2F88C30EF
:1021500023F44003216C0B43C2F88C30236CB3F59D
:10216000800F00F0088103B90125236813F0807FF8
:1021700000D0012613F0200F40F0FF80236813F0F9
:10218000100F0CD08C4BD3F88C2022F08072C3F847
:102190008C20D3F88C20A16B0A43C3F88C202368D1
:1021A00013F4804F08D0844AD2F8903023F440339F
:1021B000616E0B43C2F89030236813F4004F08D0CF
:1021C0007D4AD2F8903023F44023A16E0B43C2F82D
:1021D0009030236813F4803F08D0774AD2F89030CB
:1021E00023F44013E16E0B43C2F89030236813F4DC
:1021F000003F08D0704AD2F8903023F44003216F9A
:102200000B43C2F89030236813F0400F08D06A4A9D
:10221000D2F8903023F00303616C0B43C2F8903086
:10222000236813F0800F08D0634AD2F8903023F06F
:102230000C03A16C0B43C2F89030236813F4807F29
:1022400008D05D4AD2F8903023F03003E16C0B43A4
:10225000C2F89030236813F4007F08D0564AD2F8B1
:10226000903023F0C003216D0B43C2F890302368F7
:1022700013F4806F08D0504AD2F8903023F44073A2
:10228000616D0B43C2F89030236813F4006F08D0DF
:10229000494AD2F8903023F44063A16D0B43C2F851
:1022A0009030236813F4805F08D0434AD2F890300E
:1022B00023F44053E16D0B43C2F89030236813F4CC
:1022C000005F08D03C4AD2F8903023F44043216E9E
:1022D0000B43C2F89030236813F4800F08D0364ABD
:1022E000D2F8903023F08063A16F0B43C2F8903096
:1022F000236813F4001F0DD02F4AD2F8903023F03A
:102300000063E16F0B43C2F89030E36FB3F1006FED
:1023100000F09E80236813F0080F00D0012513F40D
:10232000802F08D0244AD2F8903023F04073616F98
:102330000B43C2F89030236813F4000F09D01E4AF3
:10234000D2F8903023F08053D4F880100B43C2F8B9
:102350009030002E7ED12368B3F1007F7AD0012D1A
:1023600000F00B81002003B0F0BD0126D3E601266A
:10237000E3E60125E5E60126F5E60F4B1A6C42F08F
:1023800080521A641B6C03F080530193019B0B4A2B
:10239000136843F48073136000F078FB0746074B23
:1023A0001B6813F4807F0BD100F070FBC01B642806
:1023B000F5D90320D7E700BF003802400070004085
:1023C000B34B1B6F13F4407315D0226B02F44072B1
:1023D0009A4210D0AE4B1A6F22F44072196F41F43A
:1023E00080311967196F21F4803119671A671B6FE3
:1023F00013F0010F12D1236B03F44072B2F5407F4A
:102400001DD0A34A936823F4F8139360A0490B6F7F
:10241000226BC2F30B0213430B67AFE600F036FBEF
:1024200007469B4B1B6F13F0020FE4D100F02EFB0D
:10243000C01B41F288339842F3D9032093E79448B4
:10244000826822F4F812934919400A438260DDE75A
:1024500001255FE78E4A136823F08063136000F064
:1024600015FB06468A4B1B6813F0006F06D000F080
:102470000DFB801B6428F5D9032074E7236813F053
:10248000010F13D0636B8BB9814AD2F88430D2F834
:102490008410606803F4403343EA801301F07061F4
:1024A0000B43A16843EA0173C2F88430236813F434
:1024B000002F03D0E26BB2F5801F06D013F4801F0B
:1024C0001ED0236CB3F5800F1AD1714AD2F8843034
:1024D000D2F88410606803F4403343EA8013E06864
:1024E00043EA006301F0E0410B43C2F88430D2F8C4
:1024F0008C3023F01F03616A01390B43C2F88C3022
:10250000236813F0807F11D0614AD2F88400D2F89A
:102510008410666823691B0443EA861300F0706028
:10252000034301F0E0410B43C2F88430236813F009
:10253000007F0DD0626823691B0443EA8213E268BE
:1025400043EA0263A26843EA0273514AC2F8843044
:102550004F4A136843F08063136000F097FA064611
:102560004B4B1B6813F0006F7FF4F9AE00F08EFA4E
:10257000801B6428F4D90320F5E6454A136823F04C
:102580008053136000F082FA0546414B1B6813F03C
:10259000005F06D000F07AFA401B6428F5D90320CA
:1025A000E1E6236813F4002F01D0E26B22B113F4AB
:1025B000801F1DD0236CDBB9354AD2F88830D2F8A1
:1025C0008810606903F4403343EA8013A06943EA4A
:1025D000006301F0E0410B43C2F88830D2F88C3040
:1025E00023F4F853A16A013943EA0123C2F88C307D
:1025F000236813F4001F03D0E36FB3F1006F31D0F1
:10260000236813F0080F19D0214AD2F88810D2F8A5
:102610008830606903F4403343EA801301F070614D
:102620000B43E16943EA0173C2F88830D2F88C3079
:1026300023F44033E16A0B43C2F88C30144A136828
:1026400043F08053136000F021FA0446104B1B68DE
:1026500013F0005F19D100F019FA001B6428F5D9B6
:10266000032080E60A4AD2F88800D2F8881065690B
:10267000236A1B0443EA851300F07060034301F0F2
:10268000E0410B43C2F88830BAE700206BE600BF98
:1026900000380240FFFCFF0F7047E0B138B50D462F
:1026A000044690F82C308BB1022384F82C3021465C
:1026B00051F8040B00F004FA62682946206800F023
:1026C00039FA012384F82C30002038BD80F82D30F1
:1026D000FFF7E2FFE8E70120704738B5044690F8BD
:1026E0002C00C0B202280DD00D46022384F82C30F5
:1026F000206800F06BFA2B68022B04D0012384F8C9
:102700002C30002038BD052384F82C300020F9E758
:1027100010B5044690F82C00C0B2022809D002235C
:1027200084F82C30206800F067FA012384F82C30FC
:10273000002010BD704700000268D36843F0010319
:10274000D36002689168064B0B40062B18BFB3F5A7
:10275000803F03D0136843F00103136000207047EB
:1027600007000100704770477047704710B5044676
:1027700003681A6912F0020F11D0DA6812F0020F22
:102780000DD06FF002021A610123037703689B6981
:1027900013F0030F79D0FFF7E6FF002323772368B8
:1027A0001A6912F0040F12D0DA6812F0040F0ED07A
:1027B0006FF004021A610223237723689B6913F4E4
:1027C000407F68D02046FFF7CEFF002323772368A1
:1027D0001A6912F0080F12D0DA6812F0080F0ED042
:1027E0006FF008021A61042323772368DB6913F072
:1027F000030F57D02046FFF7B6FF00232377236847
:102800001A6912F0100F12D0DA6812F0100F0ED001
:102810006FF010021A61082323772368DB6913F431
:10282000407F46D02046FFF79EFF00232377236892
:102830001A6912F0010F03D0DA6812F0010F3FD1CC
:1028400023681A6912F0800F03D0DA6812F0800F43
:102850003DD123681A6912F4807F03D0DA6812F040
:10286000800F3BD123681A6912F0400F03D0DA6859
:1028700012F0400F39D123681A6912F0200F03D0EB
:10288000DA6812F0200F37D110BDFFF76BFF20463A
:10289000FFF76AFF81E72046FFF764FF2046FFF756
:1028A00063FF92E72046FFF75DFF2046FFF75CFFDE
:1028B000A3E72046FFF756FF2046FFF755FFB4E792
:1028C0006FF001021A6120460EF09CF8B8E76FF035
:1028D00080021A61204600F0B8F8BAE76FF48072FF
:1028E0001A61204600F0B2F8BCE76FF040021A61AE
:1028F0002046FFF73AFFBEE76FF020021A6120463C
:1029000000F0A2F8C0E7000070B403683A4CA0429F
:1029100014BF00240124B0F1804F14BF224644F0BC
:102920000102AAB9354DA84214BF00250125344E35
:10293000B0420DD065B905F1804505F58235A84254
:1029400014BF0025012506F50066B04200D01DB178
:1029500023F070034D682B43002A33D1274A90425D
:1029600014BF00220122264DA8422BD052BB02F1F7
:10297000804202F58232904214BF0022012205F506
:102980000065A8421ED0EAB91E4A904214BF002238
:10299000012205F59A35A84214D09AB91A4A9042F4
:1029A00014BF0022012205F50065A8420AD04AB9E9
:1029B000164A904214BF00220122A5F59635A8427E
:1029C00000D01AB123F44073CA68134323F0800384
:1029D0004A69134303608A68C2620A6882620C4BC8
:1029E000984214BF234644F001030BB10B69036303
:1029F0000123436170BC70470000014000080040A3
:102A00000004004000440140001800400020004045
:102A100000040140B0B110B5044690F83D3063B1F8
:102A2000022384F83D30214651F8040BFFF76CFF78
:102A3000012384F83D30002010BD80F83C30FFF7C2
:102A400079FEEDE701207047704770477047704787
:102A500008B5074A136843F4007313600320FDF7B9
:102A6000BBFD0F200DF08AFFFFF7F1FF002008BD2E
:102A7000003C0240034A1168034B1B780B4413606F
:102A8000704700BFC099002000000020014B18686B
:102A9000704700BFC099002038B50446FFF7F6FF25
:102AA0000546B4F1FF3F02D0044B1B781C44FFF7EE
:102AB000EDFF401BA042FAD338BD00BF000000204C
:102AC00030B40B68012B18D00368194A1A404B68C0
:102AD0008C682343CC6823430C6923434C6923430C
:102AE0008C692343CC6923430C6A2343496A0B4313
:102AF00013430360002030BC7047046824F4F8449A
:102B0000CB690A6A1A434B6A1A4322434368084C4A
:102B10001C404B688D682B43CD682B430D692B43BC
:102B20004D692B4389690B43234302604360E1E70E
:102B30000080FFFF30B4012A21D0826802F0704289
:102B40000B68013B4C68013C43EA04138C68013C70
:102B500043EA0423CC68013C43EA04330C69013C9A
:102B600043EA04434C69013C43EA0453896901394F
:102B700043EA016313438360002030BC70478368DD
:102B8000114C1C40CA68551E4B695A1E120542EA78
:102B900005322243C46804F070440B68013B4D6861
:102BA000013D43EA05138D68013D43EA05230D69A4
:102BB000013D43EA05438969013943EA016323433F
:102BC0008260C360D8E700BFFF0F0FFF10B483B06F
:102BD0000246002001900B684C6823438C68013C3E
:102BE00043EA4413C96843EA41230193019B1361FB
:102BF00003B05DF8044B7047436943EA4103436106
:102C000000207047842801D00330704700207047AF
:102C1000EFF30580003818BF0120704708B501F0B8
:102C200051FC002008BD08B5FFF7F2FF10B101F01C
:102C300099FC08BD01F090FCFBE7F0B585B00C46AF
:102C4000456806680769B0F90800FFF7DBFF03ABCA
:102C5000019300902346BAB23146284601F057FB53
:102C6000012802D1039805B0F0BD0020FBE708B5AC
:102C700001F080FB002008BD08B5012000F0B0FE87
:102C800008BD000030B583B00023019300B30C46AB
:102C90000546FFF7BDFF90B101AA0021284601F0CB
:102CA00009F9012816D1019BB3B10D4B4FF08052A9
:102CB0001A60BFF34F8FBFF36F8F002006E02146ED
:102CC000284601F01DF8012808D1002003B030BDCE
:102CD0008020FBE7FF20F9E70020F7E7FF20F5E77A
:102CE00004ED00E010B582B0044600230193FFF725
:102CF0008FFF88B101A9204600F0ECFE012818D111
:102D0000019BC3B10D4B4FF080521A60BFF34F8F40
:102D1000BFF36F8F002008E000231A4619462046B3
:102D200000F08AFD012802D0FF2002B010BD002073
:102D3000FBE7FF20F9E70020F7E700BF04ED00E024
:102D400010B5012905D0084600F051FD0446204683
:102D500010BD03220021012000F023FD04460028BD
:102D6000F5D000231A46194600F066FDEFE7000093
:102D700070B582B00023019308B30C460646FFF7F6
:102D800047FF054690B101AA0021304601F092F8B4
:102D9000012816D1019D7DB10C4B4FF080521A6075
:102DA000BFF34F8FBFF36F8F002505E021463046FC
:102DB00000F0A6FF012806D1284602B070BD80258C
:102DC000FAE7FF25F8E7FF25F6E700BF04ED00E08E
:102DD00010B582B0044600230193FFF719FF88B1B4
:102DE00001A9204600F076FE012818D1019BC3B14D
:102DF0000D4B4FF080521A60BFF34F8FBFF36F8FB0
:102E0000002008E000231A461946204600F014FD71
:102E1000012802D0FF2002B010BD0020FBE7FF20F8
:102E2000F9E70020F7E700BF04ED00E010B5044625
:102E3000FFF7EEFE20B9204601F0D2F8002010BDC9
:102E40008220FCE708B500224168006800F0A9FC78
:102E500008BD000030B585B00446019100230393FE
:102E6000154602B90125FFF7D3FE98B1002303AA46
:102E700001A9204600F0BFFD012816D1039BB3B184
:102E80000D4B4FF080521A60BFF34F8FBFF36F8F1F
:102E9000002008E000232A4601A9204600F0CCFCCF
:102EA000012806D1002005B030BDFF20FBE700203F
:102EB000F9E7FF20F7E700BF04ED00E070B584B04C
:102EC0000446029100230193D1B10D46164600231A
:102ED0000393FFF79DFEF0B103AA01A9284600F075
:102EE000E9FF012814D000230093039BEBB1144B9E
:102EF0004FF080521A60BFF34F8FBFF36F8F14E013
:102F0000802300936B4693E8070084E8070011E0F4
:102F100010230093E9E7324601A9284600F03CFE61
:102F200001280AD006B1402600966B4693E80700B8
:102F300084E80700204604B070BD10230093F4E736
:102F400004ED00E008B501F0CFFD012800D108BD77
:102F500000F000F9FBE708B501F0F6FE002008BD1F
:102F600010B50446FFF754FE18B1204601F013F8DF
:102F700010BD204600F0FAFFFAE710B50446FFF74F
:102F800047FE20B9204601F02BF8002010BD82201A
:102F9000FCE7000082B0002301930F4B1B68B3F1E4
:102FA000FF3F0AD04FF0500372B683F31188BFF38E
:102FB0006F8FBFF34F8F62B6FEE74FF0500372B6CC
:102FC00083F31188BFF36F8FBFF34F8F62B6019BFE
:102FD000002BFCD002B070470800002008480068B1
:102FE000006880F308884FF0000080F3148862B610
:102FF00061B6BFF34F8FBFF36F8F00DF00BF0000DC
:1030000008ED00E0DFF80C00016841F47001016098
:103010007047000088ED00E04FF0807340F8043CFA
:1030200021F0010140F8081C054B40F80C3C40F829
:10303000202C6FF0020340F8243C4438704700BF56
:10304000952F0008000000000000000000000000B4
:10305000074B19680868B0E8F04F80F30988BFF3A0
:103060006F8F4FF0000080F311887047AFF300803E
:10307000749500204FF0500372B683F31188BFF3AC
:103080006F8FBFF34F8F62B60B4A13680133136023
:10309000012B00D07047094B1B6813F0FF0FF9D0CC
:1030A0004FF0500372B683F31188BFF36F8FBFF3F5
:1030B0004F8F62B6FEE700BF0800002004ED00E07D
:1030C0000A4B1B6853B94FF0500372B683F3118853
:1030D000BFF36F8FBFF34F8F62B6FEE7013B034A2A
:1030E00013600BB983F31188704700BF08000020FC
:1030F000EFF30980BFF36F8F154B1A681EF0100FA6
:1031000008BF20ED108A20E9F04F10602DE909007A
:103110004FF0500072B680F31188BFF34F8FBFF3AA
:103120006F8F62B601F032FB4FF0000080F3118820
:1031300009BC19680868B0E8F04F1EF0100F08BF0E
:10314000B0EC108A80F30988BFF36F8F704700BF1F
:103150007495002008B54FF0500372B683F31188C0
:10316000BFF36F8FBFF34F8F62B601F003FA18B150
:10317000034B4FF080521A60002383F3118808BD7F
:1031800004ED00E0084A0023136008490B60084B77
:103190001B680849A1FB03139B09013B06490B600F
:1031A00007231360704700BF10E000E018E000E064
:1031B0000C000020D34D621014E000E010B582B086
:1031C0002C4B1A78D2B20192FF221A701B78DBB214
:1031D0008DF803309DF8033003F05003264A137036
:1031E000264B07221A609DF8033013F0800F0AD097
:1031F000224A1368013B13609DF803305B00DBB289
:103200008DF80330EFE71D4B1B68032B0AD04FF0FE
:10321000500372B683F31188BFF36F8FBFF34F8FE4
:1032200062B6FEE71B0203F4E063144A1360019BDD
:10323000DBB2104A1370124B1A6842F470021A6023
:103240001A6842F070421A60FFF79CFF00240D4B91
:103250001C60FFF7D7FE0C4A136843F0404313602D
:10326000FFF7BCFE01F092FAFFF794FE204602B091
:1032700010BD00BF00E400E05431002058310020B0
:1032800020ED00E00800002034EF00E0EFF30583BC
:103290000F2B11D9124A9B5CDBB2124A12789A4268
:1032A0000AD94FF0500372B683F31188BFF36F8FC2
:1032B000BFF34F8F62B6FEE70B4B1B6803F4E0636E
:1032C0000A4A126893420AD94FF0500372B683F348
:1032D0001188BFF36F8FBFF34F8F62B6FEE7704761
:1032E000F0E300E0543100200CED00E05831002004
:1032F000124A12F0070F1ED0D11D21F00701C1F5AF
:10330000C84313440A460E4802600021416013443A
:10331000083B23F007030B48036059601960991AB2
:1033200051601360084B1960084B1960084B4FF04F
:1033300000421A6070474FF4C843E4E76031002050
:103340006C9500205C310020689500206495002079
:103350006095002010B4134B1A461B688342FBD3C0
:103360005168541884420AD041684418A3420BD0D3
:103370000360904200D010605DF8044B70474068D5
:10338000014451601046EFE7074C2468A34206D081
:103390005B681944416013681B680360E9E70460D7
:1033A000E7E700BF6C9500205C31002070B5044653
:1033B00001F0CAF8364B1B68A3B1364B1B681C42A0
:1033C0004CD134B1083414F0070F02D024F00704B4
:1033D0000834002C44D0304B1B68A34251D32F4BF0
:1033E0001D6804E0FFF784FFE7E72B4615466A688F
:1033F000A24202D22A68002AF7D1254A1268AA42BC
:1034000041D01E6808362A681A606B681B1B102B97
:1034100012D9281910F0070F0AD04FF0500372B6D6
:1034200083F31188BFF36F8FBFF34F8F62B6FEE750
:1034300043606C60FFF78EFF6A6817490B689B1A40
:103440000B60174909688B4201D215490B60114B7B
:103450001B6813436B6000232B6002E0002600E032
:10346000002601F015F916F0070F0ED04FF05003AB
:1034700072B683F31188BFF36F8FBFF34F8F62B6BD
:10348000FEE70026EDE70026EBE7304670BD00BF03
:103490005C31002060950020649500206C95002030
:1034A00068950020002834D038B50446A0F10805FE
:1034B00050F8043C174A126813420AD14FF05003E7
:1034C00072B683F31188BFF36F8FBFF34F8F62B66D
:1034D000FEE750F8081C51B14FF0500372B683F369
:1034E0001188BFF36F8FBFF34F8F62B6FEE723EAF9
:1034F000020340F8043C01F027F854F8041C064A83
:1035000013680B4413602846FFF724FF01F0C0F84E
:1035100038BD7047609500206495002000F10803D5
:1035200043604FF0FF328260C36003610023036099
:10353000704700230361704743684B609A688A6054
:10354000516099600861036801330360704730B4CB
:103550000D68B5F1FF3F11D000F108031C465B6810
:103560001A68AA42FAD963684B6099608C606160FE
:10357000086103680133036030BC70470469F2E7F7
:103580000369416882688A60416851605A68824272
:1035900006D0002202611A68013A1A601868704762
:1035A00082685A60F5E70346406A18B11B6B1868D9
:1035B000C0F10700704710B50446FFF75BFDA26B32
:1035C000E36B9A4204D00024FFF77AFD204610BD39
:1035D0000124F9E710B50446FFF74CFDA36B23B9AE
:1035E0000124FFF76DFD204610BD0024F9E770B5FA
:1035F00004461546866B026C5AB903681BB100205D
:103600000136A66370BD806801F0DAFA0023A3607A
:10361000F6E76DB940680DF0BDFA226C636813449B
:103620006360A268934219D3236863602846E7E782
:10363000C0680DF0AFFA226C5142E3689B1AE36058
:103640002268934202D2A3680B44E360022D01D0AA
:103650000020D5E726B1013E0020D1E72846CFE77C
:103660000020CDE70346026C6AB110B50846D96860
:103670001144D9609C68A14201D31968D960D96806
:103680000DF088FA10BD704738B50546FFF7F2FC1B
:1036900095F8454064B203E001F074F9013C64B26E
:1036A000002C08DD6B6A33B105F1240001F0D6F877
:1036B0000028F3D0F0E7FF2385F84530FFF700FD41
:1036C000FFF7D8FC95F8444064B203E001F05AF9E2
:1036D000013C64B2002C08DD2B6933B105F1100008
:1036E00001F0BCF80028F3D0F0E7FF2385F8443060
:1036F000FFF7E6FC38BD000038B5E0B10D460446E2
:10370000FFF7B8FC2168E26B236C03FB0210A0609A
:103710000020A0636160013A02FB0313E360FF2312
:1037200084F8443084F84530FDB9236973B9FFF754
:10373000C7FC012038BD4FF0500372B683F31188E7
:10374000BFF36F8FBFF34F8F62B6FEE704F1100037
:1037500001F084F80028EAD0084B4FF080521A603C
:10376000BFF34F8FBFF36F8FE1E704F11000FFF756
:10377000D5FE04F12400FFF7D1FED8E704ED00E008
:1037800038B51D46049C0B4649B92460E0632364A8
:1037900001212046FFF7B0FF84F84C5038BD22606D
:1037A000F4E750B94FF0500372B683F31188BFF3BA
:1037B0006F8FBFF34F8F62B6FEE7F0B583B00C4654
:1037C0001646074689B101FB00F05030FFF7EEFDC9
:1037D000054638B10090334600F150022146384684
:1037E000FFF7CEFF284603B0F0BD0846EDE750B91D
:1037F0004FF0500372B683F31188BFF36F8FBFF39E
:103800004F8F62B6FEE710B50C4688420AD24FF0E1
:10381000500372B683F31188BFF36F8FBFF34F8FDE
:1038200062B6FEE702220021FFF7BBFF034600B1AC
:103830008463184610BD0000F0B585B0019298B1C0
:103840000E461D460446D1B1022D26D1E36B012B55
:1038500023D04FF0500372B683F31188BFF36F8FFC
:10386000BFF34F8F62B6FEE74FF0500372B683F39B
:103870001188BFF36F8FBFF34F8F62B6FEE7036C03
:10388000002BE1D04FF0500372B683F31188BFF3E1
:103890006F8FBFF34F8F62B6FEE701F025F9074641
:1038A00068B9019B002B46D04FF0500372B683F3EA
:1038B0001188BFF36F8FBFF34F8F62B6FEE700270B
:1038C00039E02A4631462046FFF791FE626A6AB91E
:1038D00038B13C4B4FF080521A60BFF34F8FBFF3AB
:1038E0006F8FFFF7EDFB012005B0F0BD04F1240060
:1038F00000F0B4FF0028F4D0324B4FF080521A6031
:10390000BFF34F8FBFF36F8FEBE7FFF7D9FB0020BB
:10391000EAE702A800F0EAFF012719E0002384F893
:10392000443021E0002384F8453023E02046FFF7AF
:10393000ABFE00F0ADFEFFF79DFBA26BE36B9A427E
:10394000BFD3022DBDD0019B002BDED0002FE0D0D5
:10395000FFF7B6FB00F0F8FDFFF78CFB94F844305E
:103960005BB2B3F1FF3FD9D094F845305BB2B3F10D
:10397000FF3FD7D0FFF7A4FB01A902A800F0C2FFC8
:10398000C8B92046FFF717FE0028CFD0019904F1EF
:10399000100000F049FF2046FFF776FE00F078FEA9
:1039A0000028C8D1074B4FF080521A60BFF34F8FE9
:1039B000BFF36F8FBFE72046FFF766FE00F068FE9B
:1039C000002091E704ED00E048B110B500218160CE
:1039D0000160C1600B460A46FFF72EFF10BD70471D
:1039E00010B5024600210120FFF7DBFE0446FFF779
:1039F000EBFF204610BD2DE9F843A0B18946904663
:103A00001F460446D1B1022F26D1E36B012B23D0F0
:103A10004FF0500372B683F31188BFF36F8FBFF37B
:103A20004F8F62B6FEE74FF0500372B683F31188F2
:103A3000BFF36F8FBFF34F8F62B6FEE7036C002BAF
:103A4000E1D04FF0500372B683F31188BFF36F8F4C
:103A5000BFF34F8F62B6FEE7FFF718FCEFF3118656
:103A60004FF0500372B683F31188BFF36F8FBFF32B
:103A70004F8F62B6A26BE36B9A4206D3022F04D03B
:103A8000002086F31188BDE8F88394F845506DB2A4
:103A90003A4649462046FFF7AAFDB5F1FF3F05D05B
:103AA0006B1C5BB284F845300120EAE7636A0BB90E
:103AB0000120E6E704F1240000F0D0FE30B1B8F1B7
:103AC000000F05D00120C8F80000DAE70120D8E790
:103AD0000120D6E778B170B50E460446036CABB151
:103AE0004FF0500372B683F31188BFF36F8FBFF3AB
:103AF0004F8F62B6FEE74FF0500372B683F3118822
:103B0000BFF36F8FBFF34F8F62B6FEE70368FBB161
:103B1000FFF7BCFBEFF311854FF0500372B683F350
:103B20001188BFF36F8FBFF34F8F62B6A26BE36B49
:103B3000934228D994F845305BB20132A263B3F1C5
:103B4000FF3F13D001335BB284F8453001201BE006
:103B50008368002BDCD04FF0500372B683F31188DA
:103B6000BFF36F8FBFF34F8F62B6FEE7636A0BB987
:103B7000012009E004F1240000F070FE38B146B1E4
:103B80000120306000E0002085F3118870BD012025
:103B9000FAE70120F8E70000F0B585B00192A0B186
:103BA0000E460446E1B100F09FFF074630BB019B83
:103BB000002B62D04FF0500372B683F31188BFF32D
:103BC0006F8FBFF34F8F62B6FEE74FF0500372B6B0
:103BD00083F31188BFF36F8FBFF34F8F62B6FEE799
:103BE000036C002BDFD04FF0500372B683F31188C3
:103BF000BFF36F8FBFF34F8F62B6FEE700273CE045
:103C000031462046FFF72EFD013DA563236923B908
:103C1000FFF756FA012005B0F0BD04F1100000F0E6
:103C20001DFE0028F4D0354B4FF080521A60BFF3D0
:103C30004F8FBFF36F8FEBE7FFF742FA0020EAE701
:103C400002A800F053FE012721E0002384F844304D
:103C500029E0002384F845302BE02046FFF714FDCF
:103C600000F016FD09E02046FFF70EFD00F010FD04
:103C70002046FFF7AFFC00283DD1FFF7FBF9A56B0D
:103C8000002DBDD1019B002BD6D0002FD8D0FFF73F
:103C900017FA00F059FCFFF7EDF994F844305BB2E5
:103CA000B3F1FF3FD1D094F845305BB2B3F1FF3FA1
:103CB000CFD0FFF705FA01A902A800F023FE0028E3
:103CC000D1D12046FFF786FC0028C6D0019904F127
:103CD000240000F0A9FD2046FFF7D6FC00F0D8FC38
:103CE0000028CAD1054B4FF080521A60BFF34F8FA6
:103CF000BFF36F8FC1E700208DE700BF04ED00E048
:103D000070B584B0019168B10446036CABB14FF05B
:103D1000500372B683F31188BFF36F8FBFF34F8FD9
:103D200062B6FEE74FF0500372B683F31188BFF31B
:103D30006F8FBFF34F8F62B6FEE700F0D5FE0646E9
:103D400060B9019B6BB14FF0500372B683F31188D9
:103D5000BFF36F8FBFF34F8F62B6FEE700252E468D
:103D600055E0054653E0013BA36323683BB123695B
:103D70004BB9FFF7A5F90125284604B070BD01F045
:103D800041F8A060F3E704F1100000F067FD00289F
:103D9000EFD0474B4FF080521A60BFF34F8FBFF305
:103DA0006F8FE6E755B14FF0500372B683F3118879
:103DB000BFF36F8FBFF34F8F62B6FEE7FFF780F957
:103DC000DAE702A800F092FD01262AE0002384F839
:103DD000443032E0002384F8453034E0FFF74AF9FC
:103DE000A06800F091FE0546FFF76AF93BE0204627
:103DF000FFF74AFC00F04CFC09E02046FFF744FCCA
:103E000000F046FC2046FFF7E5FB002840D1FFF715
:103E100031F9A36B002BA6D1019B002BC2D0002E41
:103E2000CFD0FFF74DF900F08FFBFFF723F994F89F
:103E300044305BB2B3F1FF3FC8D094F845305BB279
:103E4000B3F1FF3FC6D0FFF73BF901A902A800F08C
:103E500059FD0028D1D12046FFF7BCFB0028C6D071
:103E60002368002BBAD0019904F1240000F0DCFC97
:103E70002046FFF709FC00F00BFC0028C7D10C4BD3
:103E80004FF080521A60BFF34F8FBFF36F8FBEE7C2
:103E90000DB9002570E7FFF7EDF82046FFF783FB2B
:103EA0000146A06800F0EAFEFFF70AF9F1E700BF5B
:103EB00004ED00E02DE9F843D8B1894617460446E1
:103EC00011B3FFF7E3F9EFF311864FF0500372B629
:103ED00083F31188BFF36F8FBFF34F8F62B6D4F8AF
:103EE0003880B8F1000F1DD1002086F31188BDE89D
:103EF000F8834FF0500372B683F31188BFF36F8FCE
:103F0000BFF34F8F62B6FEE7036C002BD9D04FF0A2
:103F1000500372B683F31188BFF36F8FBFF34F8FD7
:103F200062B6FEE794F844506DB249462046FFF76A
:103F300099FB08F1FF33A363B5F1FF3F05D06B1C7C
:103F40005BB284F844300120CFE723690BB901202C
:103F5000CBE704F1100000F081FC18B127B101207B
:103F60003860C2E70120C0E70120BEE740B110B5CC
:103F70000446FFF77FF8A46BFFF7A2F8204610BDB8
:103F80004FF0500372B683F31188BFF36F8FBFF306
:103F90004F8F62B6FEE708B1806B70474FF0500359
:103FA00072B683F31188BFF36F8FBFF34F8F62B682
:103FB000FEE70000002300E00133072B0DD8074A7D
:103FC00002EBC30252688242F6D1044A002142F851
:103FD000331002EBC303596070477047C499002047
:103FE00038B110B50446FFF7E5FF2046FFF75AFA4F
:103FF00010BD4FF0500372B683F31188BFF36F8F7B
:10400000BFF34F8F62B6FEE700230278A52A02D1E4
:1040100001300133F9E7C3F38F007047084B1B6889
:104020001B6823B9074B4FF0FF321A607047044BEF
:104030001B68DB68DB685A68024B1A60704700BF78
:10404000789500205096002010B50446006BFFF7CD
:1040500029FA2046FFF726FA10BD2DE9F84F8046D1
:104060000D46934699460A9EDDF82CA00C9C9200C2
:10407000A521206B0CF0B6FD276B6FF040435B442D
:1040800007EB830727F0070785B300220F2A07D81D
:10409000A95CA31883F83410AB5C0BB10132F5E7CF
:1040A000002384F84330062E00D90626E662E66433
:1040B00000252565201DFFF73CFA04F11800FFF7E5
:1040C00038FA2461C6F10706A6616462656584F862
:1040D00058504A4641463846FEF79EFF2060BAF1E6
:1040E000000F01D0CAF80040BDE8F88F002384F823
:1040F0003430D8E738B5002407E004EB840293009D
:104100000C481844FFF70AFA0134062CF5D90A4D79
:104110002846FFF703FA094C2046FFF7FFF9084845
:10412000FFF7FCF90748FFF7F9F9074B1D60074B4C
:104130001C6038BD80950020249600203896002011
:104140005896002070960020789500207C950020DD
:1041500010B50446FEF78EFF214A13680133136041
:10416000204B1B685BB1204B1B686BB91D4B1B6858
:10417000DA6AE36A9A4207D81A4B1C6004E0194BCA
:104180001C601368012B27D0184A13680133136091
:104190006364E06A01238340154A11680B4313608E
:1041A00000EB8000211D134B03EB8000FFF7C4F9E7
:1041B000FEF786FF0C4B1B686BB10A4B1B68DA6A73
:1041C000E36A9A4207D20C4B4FF080521A60BFF359
:1041D0004F8FBFF36F8F10BDFFF78CFFD4E700BF89
:1041E0000C960020749500206C9600201C960020F0
:1041F000209600208095002004ED00E00F4B1B6806
:10420000D3B110B5FEF736FF0D4BDB68DC68201D1F
:10421000FFF7B6F90B4A1368013B1360074A1368AE
:10422000013B1360FEF74CFF2046FFF70DFF034BE9
:104230001B68002BE6D110BD704700BF1096002010
:10424000709600200C96002008B5FFF7D7FF064BAC
:104250001B68012BF9D9054B4FF080521A60BFF350
:104260004F8FBFF36F8FF0E78095002004ED00E0E3
:1042700038B50446174B1D68174B18680430FFF714
:104280007FF950B9144B1B68DA6A012303FA02F272
:1042900012490B6823EA02030B602C440E4B1B6887
:1042A0005C60A54207D90E4B18680B4B19680431A6
:1042B000FFF74DF938BD0B4B1868074B19680431EF
:1042C000FFF745F9084B1B68A342F3D9064B1C6066
:1042D000F0E700BF8496002074950020209600200F
:1042E0007C950020789500205096002010B504465B
:1042F0000CF071FD2046FBF795FF0E2803D8202314
:1043000023540130F9E700232354204410BD2DE944
:10431000F04385B00746884614461E469000FFF7D6
:1043200045F8F0B181465C20FFF740F80546A0B1A2
:10433000C0F83090D5B10023039302950D9B0193F3
:104340000C9B00933346224641463846FFF785FED4
:104350002846FFF7FDFE012005E04846FFF7A2F8DA
:10436000E8E74FF0FF3005B0BDE8F0834FF0FF30D5
:10437000F9E7000038B50446FEF77CFE002C34D087
:10438000251D2846FFF7FCF870B9E26A02EB8203AC
:104390009B002749CB583BB9012303FA02F2254978
:1043A0000B6823EA02030B60A36A1BB104F1180037
:1043B000FFF7E6F8204A1368013313601F4B1B68B0
:1043C000A34215D01E4A1368013B13602046FFF735
:1043D0003BFEFFF723FEFEF773FE1A4B1B681BB173
:1043E000164B1B68A3420CD038BD144B1C68C7E7A2
:1043F00029461548FFF7A0F8144A136801331360E3
:10440000E9E7134B1B6853B14FF0500372B683F3C7
:104410001188BFF36F8FBFF34F8F62B6FEE70D4B6E
:104420004FF080521A60BFF34F8FBFF36F8FDBE7FF
:1044300080950020209600201C9600207495002076
:104440000C9600206C96002070960020109600209C
:104450001896002004ED00E0C0B170B50446154B7D
:104460001B6883421FD0FEF705FE6469124B1E686D
:10447000124B1D68FEF724FEAC4218BFB44214D0A4
:104480000F4B9C4213D064B101200DE04FF050035C
:1044900072B683F31188BFF36F8FBFF34F8F62B68D
:1044A000FEE7042000E0002070BD0220FCE70420AD
:1044B000FAE700BF74950020789500207C950020D5
:1044C0007096002000B583B0194B01930023009330
:1044D000802218491848FFF71AFF012805D0B0F1CB
:1044E000FF3F19D003B05DF804FB4FF0500372B6E4
:1044F00083F31188BFF36F8FBFF34F8F62B60F4BFB
:104500004FF0FF321A600E4B01221A600D4B002251
:104510001A60FEF753FEE5E74FF0500372B683F3DF
:104520001188BFF36F8FBFF34F8F62B6FEE700BFF6
:104530004C960020FC1F01084942000850960020BC
:104540006C96002084960020024A136801331360A1
:10455000704700BF18960020014B1868704700BFD5
:104560008496002008B5FEF791FE014B186808BD3F
:1045700084960020F8B53B4B1B68002B66D13A4B64
:104580001D6801351D60D5B9384B1B681B6853B1D8
:104590004FF0500372B683F31188BFF36F8FBFF3F0
:1045A0004F8F62B6FEE7314A1168314B18681060D0
:1045B0001960304A136801331360FFF72FFD2E4B4B
:1045C0001B68AB4238D900242C4B1B68DB6A03EB19
:1045D00083039A002A4B9B58012B3CD901243AE0D3
:1045E0000124224B1B681B6843B3204B1B68DB680C
:1045F000DE6873689D4226D3371D3846FEF7C0FF3C
:10460000B36A1BB106F11800FEF7BAFFF36A012284
:104610009A401C49086802430A6003EB83039A002E
:10462000394617481044FEF787FFF26A134B1B68A0
:10463000DB6A9A42D4D2D4E70024D2E70E4B4FF083
:10464000FF321A60C0E70C4A1360BDE70E4A1368D8
:104650000133136000240D4B1B6803B10124204675
:10466000F8BD00BF189600208496002078950020A1
:104670007C950020549600205096002074950020D0
:104680008095002020960020149600208896002017
:1046900038B5354B1B6853B94FF0500372B683F3EE
:1046A0001188BFF36F8FBFF34F8F62B6FEE7FEF73F
:1046B000E1FC2D4B1A68013A1A601B68002B4DD1A2
:1046C0002A4B1B680BB9002449E00024284B1B68C7
:1046D0001BB3274BDB68DC6804F11800FEF750FFC2
:1046E000251D2846FEF74CFFE06A01238340214A3E
:1046F00011680B43136000EB800029461E4B03EB4F
:104700008000FEF719FFE26A1C4B1B68DB6A9A42C5
:10471000DCD31B4B01221A60D8E70CB1FFF77EFCFB
:10472000184B1C6874B9164B1C68C4B1164B4FF07B
:1047300080521A60BFF34F8FBFF36F8F01240EE0DA
:10474000013C07D0FFF716FF0028F9D00C4B0122DF
:104750001A60F5E70B4B00221A60E4E70024FEF72D
:10476000AFFC204638BD00BF189600200C960020F4
:1047700058960020209600208095002074950020F7
:10478000889600201496002004ED00E0214B1B6861
:104790001BB1214B01221A6070471F4B00221A6087
:1047A0001E4B1B68B3FA83F3DBB2C3F11F0303EBA9
:1047B00083018A001A498A5852B94FF0500372B6E1
:1047C00083F31188BFF36F8FBFF34F8F62B6FEE79D
:1047D00010B4134903EB830082000A445068406818
:1047E000506003EB8304A20014460832114488424F
:1047F0000BD003EB83039A00094B13445B68DA6820
:10480000084B1A605DF8044B70474068044A224424
:104810005060EEE718960020889600202096002031
:10482000809500207495002058B110B50C460A4BB5
:1048300019681831FEF78BFE01212046FFF718FD9D
:1048400010BD4FF0500372B683F31188BFF36F8F22
:10485000BFF34F8F62B6FEE77495002038B5C3688A
:10486000DC6824B304F118052846FEF789FE194BCD
:104870001B683BBB251D2846FEF782FEE06A01232C
:104880008340154A11680B43136000EB80002946F2
:10489000124B03EB8000FEF74FFEE26A104B1B68E1
:1048A000DB6A9A4213D901200E4B186010E04FF0DA
:1048B000500372B683F31188BFF36F8FBFF34F8F2E
:1048C00062B6FEE729460848FEF736FEE5E7002017
:1048D00038BD00BF1896002020960020809500204B
:1048E000749500208896002058960020034B1B6882
:1048F0000360034B1B684360704700BF5496002061
:1049000084960020D0B170B50C46054609B3FEF779
:10491000B1FB1A4B1A686B68D01A2E6818490968DF
:104920008E4201D0934227D9216881421CD80023AE
:1049300023600124FEF7C4FB204670BD4FF05003F6
:1049400072B683F31188BFF36F8FBFF34F8F62B6D8
:10495000FEE74FF0500372B683F31188BFF36F8FF9
:10496000BFF34F8F62B6FEE79B1A0B4423602846C5
:10497000FFF7BCFF0024DDE70124DBE7849600207D
:1049800054960020014B01221A607047889600203F
:1049900070B50C4616460546C0B1256005F13402D7
:1049A0006260EA6A22612A6BE2616A6CA260EA6C68
:1049B00062610022A261052B0ED00C4A1268AA4245
:1049C00007D023736EB90023238470BD074A15688E
:1049D000E3E700232373F5E72846FFF73DFD207347
:1049E000F0E7286BFFF710FB2084EEE774950020BA
:1049F0002DE9F0470C683CB307460D4690464B68DE
:104A00005B684B6001F108094B4504D06B68D3F833
:104A10000CA0002412E05B684B60F7E75B686B60FA
:104A20006B68DE6804EBC4014346012207EB810199
:104A30003046FFF7ADFF0134B24505D06B685B68C7
:104A40006B609945ECD1E9E72046BDE8F0870000AE
:104A5000F8B506460C461746FFF776FD1D4B1B685A
:104A6000A34232D807250024013D04EBC40005EB26
:104A700085010122184B03EB810106EB8000FFF753
:104A8000B7FF0444002DEFD104EBC400134B1968A9
:104A9000022206EB8000FFF7ABFF044404EBC400E6
:104AA0000F4B1968022206EB8000FFF7A1FF0444B8
:104AB00004EBC40004220B4906EB8000FFF798FFCB
:104AC00004441FB100233B6000E00024FFF7E0FD39
:104AD0002046F8BD0C960020809500207895002097
:104AE0007C95002070960020054B1B6833B1054B68
:104AF0001B680BB1002070470220704701207047EF
:104B00006C9600201896002000284FD038B5044637
:104B1000C36A284A1268D26A93423FD28269002A45
:104B200005DB244A1268D26AC2F107028261616918
:104B300003EB8303204A02EB8303994205D01D4B0C
:104B40001B68DB6AE362012038BD251D2846FEF79D
:104B500017FD70B9E26A02EB82039B001649CB583D
:104B60003BB9012303FA02F214490B6823EA02035A
:104B70000B60104B1B68D86AE062012404FA00F352
:104B80000E4A11680B43136000EB800029460A4B64
:104B900003EB8000FEF7D0FC2046D5E7C26C054B46
:104BA0001B68DB6A9A4203D30020CDE700207047E0
:104BB0000120C9E7749500208095002020960020F0
:104BC000002850D038B50446294B1B6883420AD0D0
:104BD0004FF0500372B683F31188BFF36F8FBFF3AA
:104BE0004F8F62B6FEE7036D53B94FF0500372B6B4
:104BF00083F31188BFF36F8FBFF34F8F62B6FEE769
:104C0000013B0365C16AC26C91422ED00BB10020FA
:104C100038BD051D2846FEF7B3FC70B9E26A02EB09
:104C200082039B001349CB583BB9012303FA02F2DC
:104C300011490B6823EA02030B60E06CE062C0F1EB
:104C40000703A361012404FA00F30B4A11680B4324
:104C5000136000EB80002946064B03EB8000FEF753
:104C60006BFC2046D4E7002070470020D0E700BF4F
:104C700074950020809500202096002000285BD0AD
:104C800038B50A460446016D51B94FF0500372B66B
:104C900083F31188BFF36F8FBFF34F8F62B6FEE7C8
:104CA000C36C934200D21346E26A9A4201D00129B2
:104CB00000D038BD21490968A14232D0E362A16920
:104CC000002902DBC3F10703A361616902EB8202E1
:104CD0001B4B03EB82029142EBD1251D2846FEF7C8
:104CE0004FFC70B9E26A02EB82039B001449CB5877
:104CF0003BB9012303FA02F212490B6823EA0203CB
:104D00000B60E06A012383400E4A11680B43136075
:104D100000EB800029460A4B03EB8000FEF70CFCF9
:104D2000C7E74FF0500372B683F31188BFF36F8F5C
:104D3000BFF34F8F62B6FEE7704700BF7495002047
:104D400080950020209600202DE9F04383B0064690
:104D500000230370294B1C68186800EBC00080001A
:104D6000FEF724FB002845D0804600222146FFF7AD
:104D70006FFE0746002514E04FF058096168304681
:104D8000FFF7B4FA06462369228CA16801910092CC
:104D90004A461B490BF0F0FF3046FBF743FA064446
:104DA0000135BD4223D205EBC50408EB8404237B07
:104DB000042B16D801A252F823F000BF794D000849
:104DC000E94D0008D14D0008D74D0008DD4D000821
:104DD0004FF04209D2E74FF05309CFE74FF04409B3
:104DE000CCE74FF00009C9E74FF05209C6E740464B
:104DF000FEF758FB03B0BDE8F08300BF0C9600201F
:104E000004200108054B1B6823B1044B1A68136D7D
:104E100001331365014B1868704700BF749500207B
:104E20000C4B0D4A1A6000230C4A13800C4A138065
:104E30000C4A13800C4A13800C4A13800C4A01213F
:104E400011700C4A13700C4A13700C4A13700C4A00
:104E50001380704768D60020800000FF0A9A002067
:104E6000109A0020089A0020069A0020049A002038
:104E70000C9A0020129A00200D9A00200E9A002011
:104E80006CD6002008B5FFF7CBFF4FF0FF3000F0E5
:104E9000BBFB08BD70B50546154C204600F098FBDD
:104EA000144E304600F07AFB00F01AFBE38803EB67
:104EB00043039BB282B20021084600F0EFFC4FF0A2
:104EC000FF3000F06BFB304600F074FB01232A46F4
:104ED000E188002000F06EFC4FF0FF3000F06AFB2C
:104EE000054800F05BFB054800F072FB70BD00BF99
:104EF0001C000020FF0000FF800000FF14000020C5
:104F0000F8B50646194D284600F062FB184F3846A2
:104F100000F044FB00F0F0FAEC88041BA4B200F0AF
:104F2000DFFAEB880433211F9BB282B289B20020E2
:104F300000F0B4FC4FF0FF3000F030FB384600F0DA
:104F400039FB00F0D9FAE988411A0123324689B2C7
:104F5000002000F02FFC4FF0FF3000F02BFB054845
:104F600000F01CFB284600F033FBF8BD14000020C5
:104F7000FF0000FF800000FF2DE9F041244B1E8858
:104F80000F2E03D8234B1B889E4209D2214B1B882E
:104F90009E4201D27536B6B2103EB6B2002532E05E
:104FA0001D4C06EB4616B3002344D3F8800000F0F6
:104FB000F5FA174B1B8803EB43129100043321448D
:104FC00098B200F05BFC20E0AA19144C84FB023478
:104FD000A318D417C4EBA314752303FB1424A4B2A1
:104FE000DFF83480670104EB441293004344D3F8A4
:104FF000800000F0D3FA3C44A1004144281D00F099
:105000003DFC0135EDB2102DDED9BDE8F08100BFC9
:10501000089A0020109A0020149A00208DC0088C55
:1050200070B5064600F0E2FA464B1B78002B7ED1A5
:105030000546454B1B78012B17D0444B1C8800F0CC
:105040004FFAAB88B0FBF3F084421ED20A2E1CD07C
:105050003F4B1B883D4A1188481C108003EB4313CB
:105060003C4A02EB83035E5461E03B4B1A88384BA9
:105070001A803A4B1A883A4B1A800023324A13702E
:10508000384A1370384A1380D7E7354B1B88304AAB
:10509000128893420FD3354A12784AB901339BB232
:1050A0002F4A1380752B06D1134600221A8002E086
:1050B0002E4B00221A70254B1C880DE0244B1B88B8
:1050C000224A1188481C108003EB4313214A02EB4B
:1050D000830320225A54013400F002FAAB88B0FB5B
:1050E000F3F3A342EAD81A4C238803EB4313194A7B
:1050F00002EB83031E4A1268C3F88020134B002280
:105100001A80FFF739FF238801339BB22380752B68
:105110000FD00A2E0BD00E4B1B880C4A1188481C4E
:10512000108003EB43130B4A02EB83035E543046BB
:1051300070BD002222800123094A13800B4A13709C
:10514000E7E700BF0D9A0020129A00200A9A00207B
:10515000089A0020149A0020049A0020069A002041
:10516000109A00200E9A00206CD600200C9A002085
:1051700068D6002010B40F4AD2F8883043F4700388
:10518000C2F888300C4B196841F001011960002009
:1051900098601C68094921401960094959601968DB
:1051A00021F480211960D8604FF0006393605DF8AE
:1051B000044B704700ED00E000380240FFFFF6FEB0
:1051C000103000242DE9F04383B081464FF00008F1
:1051D000CDF80480204C0126266010276760A66069
:1051E000C4F80C801D4D4FF6FF7221462846FDF78E
:1051F00074FA3046FDF750FC022323606760A66016
:10520000C4F80C804FF6FF7221462846FDF765FA78
:105210000323236067600823A360C4F80C804FF663
:10522000FF7221462846FDF758FA4FF408730193A0
:10523000042323606760A660019BE3604FF6FF7262
:1052400021462846FDF749FA49462846FDF760FA07
:1052500003B0BDE8F08300BF8C96002070D600201C
:1052600070B58EB00646534B9A6B42F001029A63BA
:105270009A6B02F001020192019A1A6B42F48002C9
:105280001A631A6B02F480020292029A1A6B42F0BD
:1052900004021A631A6B02F004020392039A1A6B57
:1052A00042F008021A631A6B02F008020492049A90
:1052B0001A6B42F010021A631A6B02F01002059288
:1052C000059A1A6B42F020021A631A6B02F0200250
:1052D0000692069A1A6B42F040021A631A6B02F0A9
:1052E00040020792079A1A6B42F080021A631B6B06
:1052F00003F080030893089B02230A9301220B9278
:105300000C930C230D930823099309A92A48FCF751
:10531000E1F84CF20373099309A92848FCF7DAF87D
:105320004FF68373099309A92548FCF7D3F84FF684
:105330003F03099309A92348FCF7CCF848F233133B
:10534000099309A92048FCF7C5F82823099309A95E
:105350001E48FCF7BFF81E4C002565608023A36043
:105360004FF40073E3604FF4806323614FF4805384
:1053700063614FF48043A361E5614FF4003323621E
:1053800065620323A362E5622563124B23603463E5
:10539000A6632046FBF78CFA2046FBF723FA2A4641
:1053A0000F213820FBF72AF93820FBF759F90EB006
:1053B00070BD00BF0038024000080240000C0240EF
:1053C000001002400014024000180240001C02407D
:1053D000B89600201064024038B51B4C1B4B23606C
:1053E0001B4D02232B60072169600422AA60E9603B
:1053F0002B616B61AB6100216160A160E2601023F1
:105400002361402363614FF48073A361E1614FF432
:10541000006323624FF480536362A1622046FFF76A
:105420001FFF29462046FDF738F948B1094B0122F4
:105430001A7040F20360FFF7C5FE064B187838BDBE
:10544000044B00221A70F4E770D60020400100A03F
:105450009C960020100000202DE9F04182B0054606
:105460000E46174698461A4B4FF440325A60194B75
:105470001C68194B342202FB0434A36C022B0DD0A0
:10548000134B00229A601248089BC360134B0360C1
:10549000FBF788FA30B102B0BDE8F0810C4B022274
:1054A0009A60F0E729460A48FBF766FB0028F2D12C
:1054B000CDF800803B46324609990548FBF7A0FA33
:1054C0000028E8D10A210248FBF7B6FAE3E700BF5B
:1054D0003497002018970020A4D6002000B0024086
:1054E000034B1B68034A342101FB0323186E7047EA
:1054F00018970020A4D60020034B1B68034A3421D0
:1055000001FB0323586E704718970020A4D6002093
:1055100070B58EB004460E4600250195FFF7E0FFFA
:1055200002900395FFF7E8FF049005950A96FF2384
:10553000069307958DF834508DF835508DF8365018
:105540004FF4C063089307230993FFF7C9FF0B903B
:10555000FFF7D2FF0C90224601A90A48FCF702FA95
:10556000094A04EB440302EB83034FF0FF31596017
:105570000649996004EB44044FF07F4342F824301D
:105580000EB070BDA4D600201C970020240000207F
:10559000014B1860704700BF18970020034B1B6831
:1055A00003EB4303024A42F8230070471897002098
:1055B0001C970020044B1B6803EB4303034A02EBD8
:1055C00083035860704700BF189700201C97002085
:1055D000044B1B6803EB4303034A02EB830398600D
:1055E000704700BF189700201C970020044B1B68D1
:1055F00003EB43039A00034B13449868704700BFC2
:10560000189700201C970020F0B583B005460B4B7F
:105610001E680B4A342303FB0623DF6DFFF760FF90
:105620000446FFF769FF03460195002200922246D7
:1056300039463046FFF710FF03B0F0BD1897002041
:10564000A4D60020F8B506460C461546104B1B683C
:10565000104A342101FB03218A6C022A0BD00D4A27
:10566000342101FB0323DF6DFFF73AFF00FB0460E9
:1056700047F82050F8BD074A342101FB0323DF6DB2
:10568000FFF72EFF00FB0460ADB227F81050F1E7E2
:1056900018970020A4D600202DE9F04F83B0814652
:1056A0000E460092344B1B6803EB4303334A02EB74
:1056B00083039B68DA8801929D8805F1070B4FEA06
:1056C000EB0B4FEACB085FFA88F8EBB2A8EB0308C4
:1056D0005FFA88F84FF0000A34E0009AD75C0024A3
:1056E00014E00099CB5C577847EA0327F7E7224B91
:1056F0001B6803EB4303214A02EB830309EB04001D
:105700005A68314680B2FFF79DFF0134A54215D992
:105710002B1B4344013B012202FA03F33B42E6D038
:10572000154B1B6803EB430309EB0400134A52F8C3
:105730002320314680B2FFF785FFE6E70136B6B297
:105740000AF1010A019B534512D90AFB0BF3009A97
:105750001A44BBF1010FC0D0BBF1020FC1D00099B8
:10576000CB5C57783F0247EA034793781F43B6E77D
:1057700003B0BDE8F08F00BF189700201C970020F1
:1057800038B50A4B1B6803EB4303094C04EB830356
:105790009C682568203AE38803FB02F2A38807335C
:1057A000DB1003FB0252FFF777FF38BD189700208C
:1057B0001C9700202DE9F0410546884616461F46F5
:1057C000002412F8011B09B10134FAE7FFF788FE43
:1057D000284B1B6803EB4303274A02EB83039B68B8
:1057E0009B88B0FBF3F0012F30D0022F36D02BB2C4
:1057F000002B3ADD00243778FFF772FE1D4B1B6843
:1058000003EB43031C4A02EB83039B689A8802FB69
:1058100014039BB2934234BF00230123002F08BF1F
:10582000002323B33A4641462846FFF7A9FF114B10
:105830001B6803EB4303104A02EB83039B689888C1
:105840000544ADB201360134A4B2D4E7001B00FB1D
:1058500003F3C3F34F031D44ADB2C8E7001B10FBB5
:1058600003F39BB25D1BADB2C1E70125C2E7BDE802
:10587000F08100BF189700201C97002038B505461E
:105880000C46FFF7B3FEC38813FB05F10323224642
:1058900089B20020FFF78EFF38BD00002DE9F043EC
:1058A00083B080460D4616461F461E4C226802EB0A
:1058B00042021D4B53F82200FFF770FE24681B4A7A
:1058C000342303FB04239B6C022B1ED0174A342382
:1058D00003FB0423D3F85C90FFF702FE00FB058571
:1058E00009EB8505FFF7FCFD04EB44020E4B53F872
:1058F00022300193801B00903B46324629462046C9
:10590000FFF7AAFD03B0BDE8F083342303FB0423B3
:10591000D3F85C90FFF7E4FD00FB058509EB450536
:10592000E0E700BF189700201C970020A4D60020B5
:10593000F0B58FB04A4B5A6C42F080625A645A6C90
:1059400002F080620092009A1A6B42F400021A631D
:105950001A6B02F400020192019A1A6B42F01002D3
:105960001A631A6B02F010020292029A1A6B42F04A
:1059700040021A631A6B02F040020392039A1A6BF8
:1059800042F480721A631A6B02F480720492049AD1
:105990001A6B42F400721A631A6B02F400720592D9
:1059A000059A1A6B42F480621A631A6B02F48062E1
:1059B0000692069A1A6B42F480721A631A6B02F40A
:1059C00080720792079A1A6B42F480621A631B6B0B
:1059D00003F480630893089B1023099302240A941C
:1059E00000230B930C940E250D9509A91D48FBF778
:1059F00071FD4FF4805709970A9409230D9309A963
:105A00001948FBF767FD4FF4664309930A940D9517
:105A1000164E09A93046FBF75DFD4EF6FF7309935C
:105A20000A940D9509A91248FBF754FDF723099331
:105A30000A940D950F4C09A92046FBF74BFD0997D9
:105A400001250A9509A93046FBF744FD082309936F
:105A50000A9509A92046FBF73DFD0FB0F0BD00BF38
:105A600000380240001002400018024000200240AE
:105A7000002402400028024008B5064808230360BD
:105A8000C02343610523C3614FF48033C362FCF735
:105A90002DFB08BD7497002010B5254C28236361A9
:105AA0000923A3613523E3610B23236240F21B1317
:105AB000A36240F21523636240F21D13236340F298
:105AC0003523E36200212046FFF7D6FF4FF4F07341
:105AD00023664FF488736366002384F8343084F8B7
